5249000000000000000020000000001001001FLORENCIO AGUINO                                                                                     X0           PLAYA BLANCA                                                                                         D00000000002000000000000000000007300001012026000000000002000
5249000000000000000030000000001001001GUMERCINO AGUINO                                                                                     X0           PLAYA BLANCA                                                                                         D00000000002000000000000000000007300001012026000000000003000
5249000000000000000040000000001001001MAURICIO AGUINO                                                                                      X0           SANTANDER CANVERA                                                                                    D00000000001000000000000000000004100001012026000000000004000
5249000000000000000050000000001001001MAURICIO AGUINO                                                                                      X0           SANTANDER GRIETA                                                                                     D00000000001000000000000000000004100001012026000000000005000
5249000000000000000060000000001001001MAURICIO AGUINO                                                                                      X0           EL COCAL LAGARTERA                                                                                   D00000000001000000000000000000004100001012026000000000006000
5249000000000000000070000000001001002MAURICIO AGUINO                                                                                      X0           SANTANDER GRANDE                                                                                     D00000000002000000000000000000004100001012026000000000007000
5249000000000000000070000000001002002ALEJANDRO AGUINO                                                                                     X0           SANTANDER GRANDE                                                                                     D00000000002000000000000000000004100001012026000000000007000
5249000000000000000080000000001001001CARLOS AGUIRRE                                                                                       X0           SANTANDER GRIETAS                                                                                    D00000000001000000000000000000005700001012026000000000008000
5249000000000000000090000000001001001ERNESTO AGUIRRE                                                                                      X0           SANTANDER                                                                                            D00000000003000000000000000000007300001012026000000000009000
5249000000000000000100000000001001001ORFILIO AGUIRRE                                                                                      X0           LERIDA                                                                                               D00000000001250000000000000000001900001012026000000000010000
5249000000000000000110000000001001001QUINTILIANO AGUIRRE                                                                                  X0           SANTANDER                                                                                            D00000000001000000000000000000004100001012026000000000011000
5249000000000000000120000000001001002QUINTILIANO AGUIRRE                                                                                  X0           SANTANDER                                                                                            D00000000002000000000000000000004100001012026000000000012000
5249000000000000000120000000001002002MAURICIO AGUINO                                                                                      X0           SANTANDER                                                                                            D00000000002000000000000000000004100001012026000000000012000
5249000000000000000130000000001001001ALBERTO ALEGRIA                                                                                      X0           HERIDA PLANTANILLO                                                                                   D00000000002000000000000000000002000001012026000000000013000
5249000000000000000140000000001001001ALBERTO ALEGRIA                                                                                      X0           HERIDA PLANTANILLO                                                                                   D00000000002000000000000000000007300001012026000000000014000
5249000000000000000150000000001001001ALBERTO ALEGRIA                                                                                      X0           HERIDA PLANTANILLO                                                                                   D00000000001000000000000000000004100001012026000000000015000
5249000000000000000160000000001001001ALBERTO ALEGRIA                                                                                      X0           LA VIVORA                                                                                            D00000000001000000000000000000002000001012026000000000016000
5249000000000000000170000000001001001ALBERTO ALEGRIA                                                                                      X0           EL BRAZO                                                                                             D00000000001000000000000000000004100001012026000000000017000
5249000000000000000180000000001001001ALBERTO ALEGRIA                                                                                      X0           LA MARIAS                                                                                            D00000000001000000000000000000004100001012026000000000018000
5249000000000000000190000000001001001JOSE ALEGRIA                                                                                         X0           JUAN ANGULO                                                                                          D00000000001000000000000000000011600001012026000000000019000
5249000000000000000200000000001001001JUAN ALEGRIA                                                                                         X0           LA GRIETA                                                                                            D00000000001000000000000000000011600001012026000000000020000
5249000000000000000210000000001001001JUAN MARIA ALVAREZ                                                                                   X0           EL HIGUERON                                                                                          D00000000001000000000000000000013300001012026000000000021000
5249000000000000000220000000001001001SINFORIANO ALVAREZ                                                                                   X0           LINDERO                                                                                              D00000000002000000000000000000004100001012026000000000022000
5249000000000000000230000000001001001CONRADINO ANCHICO                                                                                    X0           EL CASTANO                                                                                           D00000000001000000000000000000002000001012026000000000023000
5249000000000000000240000000001001001MANUEL ANCHICO                                                                                       X0           EL CEDRO                                                                                             D00000000001000000000000000000007300001012026000000000024000
5249000000000000000250000000001001001AQUILINO ARBOLEDA                                                                                    X0           LA HERRADURA                                                                                         D00000000002000000000000000000007300001012026000000000025000
5249000000000000000260000000001001001AQUILINO ARBOLEDA                                                                                    X0           CELEPRIETA                                                                                           D00000000001000000000000000000002000001012026000000000026000
5249000000000000000270000000001001001SEGUNDO ARBOLEDA                                                                                     X0           BELLAVISTA                                                                                           D00000000005000000000000000000014800001012026000000000027000
5249000000000000000280000000001001001TOMASA ARBOLEDA                                                                                      X0           CALABAZAL                                                                                            D00000000002000000000000000000007300001012026000000000028000
5249000000000000000290000000001001001ZENON ARBOLEDA                                                                                       X0           ISLA GRANDE                                                                                          D00000000002000000000000000000011600001012026000000000029000
5249000000000000000300000000001001001ZENON ARBOLEDA                                                                                       X0           ZAPANGE                                                                                              D00000000001000000000000000000011600001012026000000000030000
5249000000000000000310000000001001001NICOMEDES ARDILA                                                                                     X0           LA VIVORA                                                                                            D00000000005000000000000000000011600001012026000000000031000
5249000000000000000320000000001001001ARTURO ARAGON                                                                                        X0           EL CHURRO                                                                                            D00000000001000000000000000000005700001012026000000000032000
5249000000000000000330000000001001002JOSE ARROYO PAZ                                                                                      X0           EL HIGUERON                                                                                          D00000000001000000000000000000007300001012026000000000033000
5249000000000000000330000000001002002CARLOS AGUIRRE                                                                                       X0           EL HIGUERON                                                                                          D00000000001000000000000000000007300001012026000000000033000
5249000000000000000340000000001001001ANTONIO ARROYO                                                                                       X0           EL HIGUERON                                                                                          D00000000001000000000000000000020100001012026000000000034000
5249000000000000000350000000001001001JUAN BOLANTA                                                                                         X0           LAS MARIAS                                                                                           D00000000001000000000000000000004100001012026000000000035000
5249000000000000000360000000001001001NATALIA BANGUERA                                                                                     X0           LA TRAVESIA                                                                                          D00000000001000000000000000000004100001012026000000000036000
5249000000000000000370000000001001001DANIEL BALDEZ                                                                                        X0           CONEJO                                                                                               D00000000006000000000000000000007300001012026000000000037000
5249000000000000000380000000001001001DANIEL BALDEZ                                                                                        X0           EL TIGRE                                                                                             D00000000006000000000000000000007300001012026000000000038000
5249000000000000000390000000001001001JULIO BALARES                                                                                        X0           LA LOMA                                                                                              D00000000003000000000000000000007300001012026000000000039000
5249000000000000000400000000001001001SILVANA BALARES                                                                                      X0           LA LOMA                                                                                              D00000000003000000000000000000007300001012026000000000040000
5249000000000000000410000000001001001SILVANA BALARES                                                                                      X0           PANIBIL                                                                                              D00000000003000000000000000000004100001012026000000000041000
5249000000000000000420000000001001001VICTOR BALARES                                                                                       X0           LA LOMA                                                                                              D00000000003000000000000000000007300001012026000000000042000
5249000000000000000430000000001001001JOSE BANGUERA PASCACIO                                                                               X0           EL CEDRO                                                                                             D00000000005000000000000000000007300001012026000000000043000
5249000000000000000440000000001001001JOSE BANGUERA PASCACIO                                                                               X0           LA PUNTICA                                                                                           D00000000002000000000000000000007300001012026000000000044000
5249000000000000000450000000001001001APARIICIO BENITEZ                                                                                    X0           LA GRIETA                                                                                            D00000000005000000000000000000007300001012026000000000045000
5249000000000000000460000000001001001ERMINSUL BENITEZ                                                                                     X0           CALABAZAL                                                                                            D00000000001000000000000000000011600001012026000000000046000
5249000000000000000470000000001001001EVARISTO BENITEZ                                                                                     X0           EL COCO                                                                                              D00000000001000000000000000000007300001012026000000000047000
5249000000000000000480000000001001001EVARISTO BENITEZ                                                                                     X0           EL BARBACO                                                                                           D00000000002000000000000000000007300001012026000000000048000
5249000000000000000490000000001001001RAMON BENITEZ                                                                                        X0           LA GRIETA                                                                                            D00000000002000000000000000000011600001012026000000000049000
5249000000000000000500000000001001001REYES BIOJO                                                                                          X0           EL COCAL                                                                                             D00000000002000000000000000000011600001012026000000000050000
5249000000000000000510000000001001001MARINO BRAVO                                                                                         X0           HERRERA                                                                                              D00000000001000000000000000000011600001012026000000000051000
5249000000000000000520000000001001001MERCEDES BURBANO                                                                                     X0           SOYAL                                                                                                D00000000002000000000000000000014800001012026000000000052000
5249000000000000000530000000001001001ABELARDO CAICEDO                                                                                     X0           LA VIVORA                                                                                            D00000000000226100000000000000007300001012026000000000053000
5249000000000000000540000000001001001ABELARDO CAICEDO                                                                                     X0           MERIZALDE                                                                                            D00000000001258700000000000000040900001012026000000000054000
5249000000000000000550000000001001001ABELARDO CAICEDO                                                                                     X0           MERIZALDE                                                                                            D00000000001258700000000000000040900001012026000000000055000
5249000000000000000560000000001001001ANATOLIO CAICEDO                                                                                     X0           MERISALDE                                                                                            D00000000000057600000000000000002000001012026000000000056000
5249000000000000000570000000001001001ANATOLIO CAICEDO                                                                                     X0           OBATA                                                                                                D00000000000226100000000000000007300001012026000000000057000
5249000000000000000580000000001001001ANATOLIO CAICEDO                                                                                     X0           GUABAMIA                                                                                             D00000000000226100000000000000007300001012026000000000058000
5249000000000000000590000000001001001ANATOLIO CAICEDO                                                                                     X0           EL CARMEN                                                                                            D00000000040950000000000000001288000001012026000000000059000
5249000000000000000600000000001001001DANIEL CAICEDO                                                                                       X0           MERIZALDE                                                                                            D00000000004000000000000000000007300001012026000000000060000
5249000000000000000610000000001001001DANIEL CAICEDO                                                                                       X0           ZAPAGUAN                                                                                             D00000000000215000000000000000023300001012026000000000061000
5249000000000000000620000000001001001EPIFANIA CAICEDO                                                                                     X0           SALTICO                                                                                              D00000000001000000000000000000007300001012026000000000062000
5249000000000000000630000000001001001GREGORIO CAICEDO                                                                                     X0           SUERTE                                                                                               D00000000000800000000000000000000300001012026000000000063000
5249000000000000000640000000001001001GREGORIO CAICEDO                                                                                     X0           DANUBIO                                                                                              D00000000002000000000000000000001900001012026000000000064000
5249000000000000000650000000001001001GREGORIO CAICEDO                                                                                     X0           LAS MARIAS                                                                                           D00000000001000000000000000000007300001012026000000000065000
5249000000000000000660000000001001001DIOMEDES CAICEDO                                                                                     X0           ZAPOTAL                                                                                              D00000000000358400000000000000011600001012026000000000066000
5249000000000000000670000000001001001CLODOMIRO CAICEDO                                                                                    X0           LA DISPENSA                                                                                          D00000000010000000000000000000014800001012026000000000067000
5249000000000000000680000000001001001ISAAC CAICEDO                                                                                        X0           PORVENIR                                                                                             D00000000001000000000000000000020100001012026000000000068000
5249000000000000000690000000001001001JOSE DOMINGO CAICEDO                                                                                 X0           CHAPLIN                                                                                              D00000000000358400000000000000011600001012026000000000069000
5249000000000000000700000000001001001JULIO CAICEDO                                                                                        X0           CHAPLIN                                                                                              D00000000000226100000000000000007300001012026000000000070000
5249000000000000000710000000001001001LINO CAICEDO                                                                                         X0           LAS MARIAS                                                                                           D00000000001000000000000000000007300001012026000000000071000
5249000000000000000720000000001001001PAULINO CAICEDO                                                                                      X0           CHAPLIN                                                                                              D00000000000128000000000000000004100001012026000000000072000
5249000000000000000730000000001001001PAULINO CAICEDO                                                                                      X0           ALTERON                                                                                              D00000000000226100000000000000007300001012026000000000073000
5249000000000000000740000000001001001CARLOS CAICEDO PAZ                                                                                   X0           CONEJO                                                                                               D00000000002000000000000000000020400001012026000000000074000
5249000000000000000750000000001001001RAIMUNDO CAICEDO                                                                                     X0           MENZALDE                                                                                             D00000000000128000000000000000004100001012026000000000075000
5249000000000000000760000000001001001RAIMUNDO CAICEDO                                                                                     X0           QUEBRADA GRANDE                                                                                      D00000000000226100000000000000007300001012026000000000076000
5249000000000000000770000000001001001RAIMUNDO CAICEDO                                                                                     X0           MAYAGUA                                                                                              D00000000000128000000000000000004100001012026000000000077000
5249000000000000000780000000001001001RICARDO CAICEDO                                                                                      X0           LA MARIAS                                                                                            D00000000001000000000000000000020100001012026000000000078000
5249000000000000000790000000001001001VICTORIA CAICEDO                                                                                     X0           CONEJO                                                                                               D00000000000172800000000000000005700001012026000000000079000
5249000000000000000800000000001001001ZACARIAS CAICEDO                                                                                     X0           LA TURBIA                                                                                            D00000000000716800000000000000023300001012026000000000080000
5249000000000000000810000000001001001MERCILIO CANDELO                                                                                     X0           SOLEDAD                                                                                              D00000000005000000000000000000011600001012026000000000081000
5249000000000000000820000000001001001AZABEL CALAZADA                                                                                      X0           EL PORTAL                                                                                            D00000000000500000000000000000004100001012026000000000082000
5249000000000000000830000000001001001EMILIANO CALZADA                                                                                     X0           PITAL                                                                                                D00000000000226100000000000000007300001012026000000000083000
5249000000000000000840000000001001001GASPAR CALZADA                                                                                       X0           EL PITAL                                                                                             D00000000001000000000000000000011600001012026000000000084000
5249000000000000000850000000001001001JAIME CALZADA                                                                                        X0           PITAL                                                                                                D00000000010000000000000000000023300001012026000000000085000
5249000000000000000860000000001001001JUAN CALZADA                                                                                         X0           LA BOLSA                                                                                             D00000000000460800000000000000014800001012026000000000086000
5249000000000000000870000000001001001JUAN CALZADA                                                                                         X0           LA BOLSA                                                                                             D00000000000226100000000000000007300001012026000000000087000
5249000000000000000880000000001001001MOISES CALZADA                                                                                       X0           PITAL                                                                                                D00000000000128000000000000000004100001012026000000000088000
5249000000000000000890000000001001001MOISES CALZADA                                                                                       X0           MIEL ABEJA                                                                                           D00000000000172800000000000000005700001012026000000000089000
5249000000000000000900000000001001001MOISES CALZADA                                                                                       X0           BRAZO LARGO                                                                                          D00000000000057600000000000000002000001012026000000000090000
5249000000000000000910000000001001001ADRIANA CAMPAS TORRES                                                                                X0           LA PALMERA                                                                                           D00000000004728000000000000000004100001012026000000000091000
5249000000000000000920000000001001001ADRIANO CAMPAS                                                                                       X0           QUEBRADA                                                                                             D00000000002000000000000000000011600001012026000000000092000
5249000000000000000930000000001001001ADRIANO CAMPAS                                                                                       X0           PLANTANILLO                                                                                          D00000000001000000000000000000004100001012026000000000093000
5249000000000000000940000000001001001BERNABE CAMPAS                                                                                       X0           MERIZALDE                                                                                            D00000000000128000000000000000004100001012026000000000094000
5249000000000000000950000000001001001BERNABE CAMPAS                                                                                       X0           LINDERO                                                                                              D00000000000128000000000000000004100001012026000000000095000
5249000000000000000960000000001001001BERNABE CAMPAS                                                                                       X0           BRINCADERO                                                                                           D00000000000057600000000000000002000001012026000000000096000
5249000000000000000970000000001001001CEFERINO CAMPAS                                                                                      X0           MERIZALDE                                                                                            D00000000002000000000000000000014800001012026000000000097000
5249000000000000000980000000001001001JOSE CAMPAS                                                                                          X0           BRINCADERO                                                                                           D00000000001000000000000000000014800001012026000000000098000
5249000000000000000990000000001001001JUAN DE LA ROSA CAMPAS                                                                               X0           COTRERAS                                                                                             D00000000000358400000000000000011600001012026000000000099000
5249000000000000001000000000001001001JUAN DE LA ROSA CAMPAS                                                                               X0           PLATILLO                                                                                             D00000000000358400000000000000011600001012026000000000100000
5249000000000000001010000000001001001TEODORO CAMPAS                                                                                       X0           MERISALDE                                                                                            D00000000001000000000000000000007300001012026000000000101000
5249000000000000001020000000001001001TEODORO CAMPAS                                                                                       X0           PLATANILLO                                                                                           D00000000000460800000000000000014800001012026000000000102000
5249000000000000001030000000001001001ANDRES CASIERRA                                                                                      X0           ZAPENGUE                                                                                             D00000000000358400000000000000011600001012026000000000103000
5249000000000000001040000000001001001ARISTIDES CASIERRA                                                                                   X0           SAPENGUE                                                                                             D00000000000128000000000000000004100001012026000000000104000
5249000000000000001050000000001001001ARISTIDES CASIERRA                                                                                   X0           SAPENGUE                                                                                             D00000000000128000000000000000004100001012026000000000105000
5249000000000000001060000000001001001ARISTIDES CASIERRA                                                                                   X0           SAPENGUE                                                                                             D00000000000038400000000000000004100001012026000000000106000
5249000000000000001070000000001001001ARISTIDES CASIERRA                                                                                   X0           CALABAZAL                                                                                            D00000000000226100000000000000007300001012026000000000107000
5249000000000000001080000000001001001ARISTIDES CASIERRA                                                                                   X0           CALABAZAL                                                                                            D00000000000226100000000000000007300001012026000000000108000
5249000000000000001090000000001001001DOROTEO CASIERRA                                                                                     X0           GARRAPATILLA                                                                                         D00000000001000000000000000000007300001012026000000000109000
5249000000000000001100000000001001001DOROTEO CASIERRA                                                                                     X0           TOLITA                                                                                               D00000000001000000000000000000007300001012026000000000110000
5249000000000000001110000000001001001EULALIO CISIERRA                                                                                     X0           PAMBUL                                                                                               D00000000002000000000000000000020100001012026000000000111000
5249000000000000001120000000001001001GONZALO CASIERRA                                                                                     X0           EL CONCHERO                                                                                          D00000000005000000000000000000007300001012026000000000112000
5249000000000000001130000000001001001JUANA CASIERRA                                                                                       X0           CALABAZAL                                                                                            D00000000000128000000000000000004100001012026000000000113000
5249000000000000001140000000001001001JUANA CASIERRA                                                                                       X0           CALABAZAL                                                                                            D00000000000128000000000000000004100001012026000000000114000
5249000000000000001150000000001001001JUANITO CASIERRA                                                                                     X0           SAPANGUE                                                                                             D00000000000700000000000000000011600001012026000000000115000
5249000000000000001160000000001001001JAUNITO CASIERRA                                                                                     X0           LA PIETA                                                                                             D00000000001000000000000000000011600001012026000000000116000
5249000000000000001170000000001001001JUVENAL CASIERRA                                                                                     X0           SAPANGUE                                                                                             D00000000000226100000000000000007300001012026000000000117000
5249000000000000001180000000001001001JUVENAL CASIERRA                                                                                     X0           SAN JOSE                                                                                             D00000000000128000000000000000004100001012026000000000118000
5249000000000000001190000000001001002MERCEDES CASIERRA                                                                                    X0           GUABITO                                                                                              D00000000000358400000000000000011600001012026000000000119000
5249000000000000001190000000001002002RENOLFO SIERRA                                                                                       X0           GUABITO                                                                                              D00000000000358400000000000000011600001012026000000000119000
5249000000000000001200000000001001002FRANCISCO CASTILLO                                                                                   X0           EL CARMEN                                                                                            D00000000000030000000000000000073700001012026000000000120000
5249000000000000001200000000001002002FRANCISCO CASTILLO                                                                                   X0           EL CARMEN                                                                                            D00000000000030000000000000000073700001012026000000000120000
5249000000000000001210000000001001001FRANCISCO CASTILLO                                                                                   X0           PAMBIL                                                                                               D00000000000226100000000000000007300001012026000000000121000
5249000000000000001220000000001001001FRANCISCO CASTILLO                                                                                   X0           PAMBIL                                                                                               D00000000000226100000000000000011600001012026000000000122000
5249000000000000001230000000001001001VICTOR CASTILLO                                                                                      X0           CONVENTO                                                                                             D00000000002000000000000000000007300001012026000000000123000
5249000000000000001240000000001001001AGUSTIN CASTRO                                                                                       X0           VUELTA LARGA                                                                                         D00000000000358400000000000000011600001012026000000000124000
5249000000000000001250000000001001001ALCIDES CASTRO                                                                                       X0           CONDERA                                                                                              D00000000001000000000000000000014800001012026000000000125000
5249000000000000001260000000001001001ALEJANDRO CASTRO                                                                                     X0           MERIZALDE                                                                                            D00000000000226100000000000000007300001012026000000000126000
5249000000000000001270000000001001001ARQUIMEDES CASTRO                                                                                    X0           ZAPANGUE                                                                                             D00000000001000000000000000000007300001012026000000000127000
5249000000000000001280000000001001001ARQUIMEDES CASTRO                                                                                    X0           ZAPANGUE                                                                                             D00000000000500000000000000000004100001012026000000000128000
5249000000000000001290000000001001001BAUDILIO CASTRO                                                                                      X0           PAMBIL                                                                                               D00000000001000000000000000000007300001012026000000000129000
5249000000000000001300000000001001001BAUDILIO CASTRO                                                                                      X0           SOLEDAD                                                                                              D00000000000500000000000000000004100001012026000000000130000
5249000000000000001310000000001001001BRUNO CASTRO                                                                                         X0           PAMBUL                                                                                               D00000000001000000000000000000004100001012026000000000131000
5249000000000000001320000000001001001CLODOMIRO CASTRO                                                                                     X0           PAMBIL                                                                                               D00000000004000000000000000000007300001012026000000000132000
5249000000000000001330000000001001001CLODOMIRO CASTRO                                                                                     X0           CHAPARRAL                                                                                            D00000000002000000000000000000014800001012026000000000133000
5249000000000000001340000000001001001ELADIO CASTRO                                                                                        X0           PLANTANILLO                                                                                          D00000000001000000000000000000007300001012026000000000134000
5249000000000000001350000000001001001EULOGIO CASTRO                                                                                       X0           TURBIA                                                                                               D00000000000500000000000000000002000001012026000000000135000
5249000000000000001360000000001001001EULOGIO CASTRO                                                                                       X0           PAMBA                                                                                                D00000000001000000000000000000005700001012026000000000136000
5249000000000000001370000000001001001FEDERICO CASTRO                                                                                      X0           ZAPANGUE                                                                                             D00000000002000000000000000000011600001012026000000000137000
5249000000000000001380000000001001001FERMIN CASTRO                                                                                        X0           SOLEDAD                                                                                              D00000000001000000000000000000007300001012026000000000138000
5249000000000000001390000000001001001FERMIN CASTRO                                                                                        X0           SOLEDAD                                                                                              D00000000000500000000000000000004100001012026000000000139000
5249000000000000001400000000001001001FERMIN CASTRO                                                                                        X0           SOLEDAD                                                                                              D00000000001000000000000000000009500001012026000000000140000
5249000000000000001410000000001001002FERMIN CASTRO                                                                                        X0           SOLEDAD                                                                                              D00000000001000000000000000000005700001012026000000000141000
5249000000000000001410000000001002002MARCO RIASCOS                                                                                        X0           SOLEDAD                                                                                              D00000000001000000000000000000005700001012026000000000141000
5249000000000000001420000000001001002ISIDRO CASTRO                                                                                        X0           GUITORA                                                                                              D00000000001000000000000000000007300001012026000000000142000
5249000000000000001420000000001002002MARCO RIASCOS                                                                                        X0           GUITORA                                                                                              D00000000001000000000000000000007300001012026000000000142000
5249000000000000001430000000001001001MARCO RIASCOS                                                                                        X0           TRAVESIA                                                                                             D00000000000080000000000000000004100001012026000000000143000
5249000000000000001440000000001001001JOSE MARIA CASTRO                                                                                    X0           EL TIGRE                                                                                             D00000000003000000000000000000031000001012026000000000144000
5249000000000000001450000000001001001JUAN CASTRO                                                                                          X0           ENCANTO                                                                                              D00000000000500000000000000000004100001012026000000000145000
5249000000000000001460000000001001001JUAN CASTRO                                                                                          X0           SANTANDER                                                                                            D00000000003000000000000000000007300001012026000000000146000
5249000000000000001470000000001001001JUAN CASTRO                                                                                          X0           POBREZA                                                                                              D00000000000500000000000000000004100001012026000000000147000
5249000000000000001480000000001001001JUAN CASTRO                                                                                          X0           BELLAVISTA                                                                                           D00000000000500000000000000000004100001012026000000000148000
5249000000000000001490000000001001001LUIS CASTRO                                                                                          X0           NERETICO                                                                                             D00000000003000000000000000000035100001012026000000000149000
5249000000000000001500000000001001001ABEL CIFUENTES                                                                                       X0           ARBOL DE PAN                                                                                         D00000000005000000000000000000011600001012026000000000150000
5249000000000000001510000000001001001ANUNCIACION CIFUENTES                                                                                X0           SOLEDAD                                                                                              D00000000000500000000000000000004100001012026000000000151000
5249000000000000001520000000001001001ATILANO CIFUENTES                                                                                    X0           SILENCIO                                                                                             D00000000000087000000000000000007300001012026000000000152000
5249000000000000001530000000001001001JUAN CIFUENTES                                                                                       X0           SALANGO                                                                                              D00000000002000000000000000000004100001012026000000000153000
5249000000000000001540000000001001001BERTILDO CIFUENTES                                                                                   X0           EL SILENCIO                                                                                          D00000000002000000000000000000007300001012026000000000154000
5249000000000000001550000000001001001DIMAS CIFUENTES                                                                                      X0           SOLEDAD                                                                                              D00000000000226100000000000000007300001012026000000000155000
5249000000000000001560000000001001001EMILIO CIFUENTES                                                                                     X0           GUASEMA                                                                                              D00000000001000000000000000000004100001012026000000000156000
5249000000000000001570000000001001001EMILIO CIFUENTES                                                                                     X0           SALANGO                                                                                              D00000000005000000000000000000007300001012026000000000157000
5249000000000000001580000000001001001EUSEBIO CIFUENTES                                                                                    X0           SALANGO                                                                                              D00000000000500000000000000000004100001012026000000000158000
5249000000000000001590000000001001001EUSEBIO CIFUENTES                                                                                    X0           TORTUGO                                                                                              D00000000000500000000000000000004100001012026000000000159000
5249000000000000001600000000001001001HERMINSUL CIFUENTES                                                                                  X0           SOLEDAD                                                                                              D00000000000160800000000000000014800001012026000000000160000
5249000000000000001610000000001001001ISMAEL CIFUENTES                                                                                     X0           SOLEDAD                                                                                              D00000000000460800000000000000001400001012026000000000161000
5249000000000000001620000000001001001JESUS CIFUENTES                                                                                      X0           LOS PANCHOS                                                                                          D00000000003000000000000000000007300001012026000000000162000
5249000000000000001630000000001001001JUAN CIFUENTES                                                                                       X0           GUASEAMA                                                                                             D00000000005000000000000000000007300001012026000000000163000
5249000000000000001640000000001001001JUAN CIFUENTES                                                                                       X0           ANCON                                                                                                D00000000001000000000000000000007300001012026000000000164000
5249000000000000001650000000001001001JUAN CIFUENTES                                                                                       X0           SALANGO                                                                                              D00000000001000000000000000000007300001012026000000000165000
5249000000000000001660000000001001001JUSTINIANO CIFUENTES                                                                                 X0           MERIZALDE                                                                                            D00000000000500000000000000000004100001012026000000000166000
5249000000000000001670000000001001001JUSTINIANO CIFUENTES                                                                                 X0           LA CONGA                                                                                             D00000000000500000000000000000004100001012026000000000167000
5249000000000000001680000000001001001MAMERTO CIFUENTES                                                                                    X0           FRANCO                                                                                               D00000000001000000000000000000007300001012026000000000168000
5249000000000000001690000000001001001MAMERTO CIFUENTES                                                                                    X0           QUEMADO                                                                                              D00000000001000000000000000000007300001012026000000000169000
5249000000000000001700000000001001001NELSON CIFUENTES                                                                                     X0           SOLEDAD                                                                                              D00000000001000000000000000000011600001012026000000000170000
5249000000000000001720000000001001001PEDRO CIFUENTES                                                                                      X0           ZANJA                                                                                                D00000000000500000000000000000004100001012026000000000172000
5249000000000000001730000000001001001SOTERO CIFUENTES                                                                                     X0           MERIZALDE                                                                                            D00000000001000000000000000000007300001012026000000000173000
5249000000000000001740000000001001001SOTERO CIFUENTES                                                                                     X0           CUBATA                                                                                               D00000000003000000000000000000007300001012026000000000174000
5249000000000000001750000000001001001SOTERO CIFUENTES                                                                                     X0           SAPAGE                                                                                               D00000000002000000000000000000007300001012026000000000175000
5249000000000000001760000000001001001TRINIDAD CIFUENTES                                                                                   X0           GAUTIL                                                                                               D00000000002000000000000000000005700001012026000000000176000
5249000000000000001770000000001001001TRINIDAD CIFUENTES                                                                                   X0           GAUTIL                                                                                               D00000000000500000000000000000002000001012026000000000177000
5249000000000000001780000000001001001BENITO COLORADO                                                                                      X0           CANDELARIA                                                                                           D00000000001000000000000000000005700001012026000000000178000
5249000000000000001790000000001001001AURELIO CORTEZ                                                                                       X0           BELLAVISTA                                                                                           D00000000010000000000000000000014800001012026000000000179000
5249000000000000001800000000001001001FELIPE CORTEZ                                                                                        X0           PAMBIL                                                                                               D00000000001000000000000000000007300001012026000000000180000
5249000000000000001810000000001001001FELIPE CORTEZ                                                                                        X0           LA PRIETA                                                                                            D00000000001000000000000000000007300001012026000000000181000
5249000000000000001820000000001001001JOSE DAVID CORTES BONILLA                                                                            X0           SAPANGUE ZAPOTE                                                                                      D00000000007000000000000000000005700001012026000000000182000
5249000000000000001830000000001001001MELCHOR CORTEZ                                                                                       X0           SALTO                                                                                                D00000000003000000000000000000007300001012026000000000183000
5249000000000000001840000000001001001MELCHOR CORTEZ                                                                                       X0           GUANGARE                                                                                             D00000000003000000000000000000005700001012026000000000184000
5249000000000000001850000000001001001MELCHOR CORTEZ                                                                                       X0           UBATE                                                                                                D00000000005000000000000000000005700001012026000000000185000
5249000000000000001860000000001001001RAMON CORTEZ                                                                                         X0           PLANTANILLO                                                                                          D00000000001000000000000000000007300001012026000000000186000
5249000000000000001870000000001001001RAMON CORTEZ                                                                                         X0           PLANTANILLO                                                                                          D00000000000500000000000000000004100001012026000000000187000
5249000000000000001880000000001001001VIRGILIO CORTEZ                                                                                      X0           GAMBERA                                                                                              D00000000010000000000000000000011600001012026000000000188000
5249000000000000001890000000001001001DE LA GUMERCINDO CRUZ                                                                                X0           SAN ANTONIO                                                                                          D00000000001000000000000000000014800001012026000000000189000
5249000000000000001900000000001001001ABELARDO CUERO                                                                                       X0           CEDRO                                                                                                D00000000002000000000000000000007300001012026000000000190000
5249000000000000001910000000001001001ANACLETO CUERO                                                                                       X0           TRAVESIA                                                                                             D00000000001500000000000000000011600001012026000000000191000
5249000000000000001920000000001001001ANACLETO CUERO                                                                                       X0           LA QUINTA                                                                                            D00000000001000000000000000000007300001012026000000000192000
5249000000000000001930000000001001001ANACLETO CUERO                                                                                       X0           CICERON                                                                                              D00000000001000000000000000000007300001012026000000000193000
5249000000000000001940000000001001001ANGEL CUERO                                                                                          X0           LA PRIETA                                                                                            D00000000001000000000000000000009500001012026000000000194000
5249000000000000001950000000001001001ANGEL CUERO                                                                                          X0           LA LOMA                                                                                              D00000000000500000000000000000004100001012026000000000195000
5249000000000000001960000000001001001ANGEL CUERO                                                                                          X0           PITAL                                                                                                D00000000000500000000000000000004100001012026000000000196000
5249000000000000001970000000001001001ANGEL CUERO                                                                                          X0           EL BARRO                                                                                             D00000000000500000000000000000004100001012026000000000197000
5249000000000000001980000000001001001ARCELIA CUERO                                                                                        X0           PANGARIAL                                                                                            D00000000001000000000000000000007300001012026000000000198000
5249000000000000001990000000001001001ARCELIA CUERO                                                                                        X0           MARIQUITA                                                                                            D00000000001500000000000000000014800001012026000000000199000
5249000000000000002000000000001001001AURELIANA CUERO                                                                                      X0           LA HERRADURA                                                                                         D00000000000500000000000000000004100001012026000000000200000
5249000000000000002010000000001001001BENIGNO CUERO                                                                                        X0           ALTICO                                                                                               D00000000001000000000000000000011600001012026000000000201000
5249000000000000002020000000001001001BERNARDO CUERO                                                                                       X0           HERRADURA                                                                                            D00000000000500000000000000000004100001012026000000000202000
5249000000000000002030000000001001001CARLOS CUERO                                                                                         X0           EL LAGO                                                                                              D00000000001500000000000000000014800001012026000000000203000
5249000000000000002040000000001001001CIRILO CUERO                                                                                         X0           LA TURBIA                                                                                            D00000000000500000000000000000004100001012026000000000204000
5249000000000000002050000000001001001CLEMENTE CUERO                                                                                       X0           TERON                                                                                                D00000000001000000000000000000007300001012026000000000205000
5249000000000000002060000000001001001CLEMENTE CUERO                                                                                       X0           SALTICO                                                                                              D00000000001000000000000000000011600001012026000000000206000
5249000000000000002070000000001001001CLODOMIRO CUERO                                                                                      X0           CONTRERA                                                                                             D00000000003000000000000000000007300001012026000000000207000
5249000000000000002080000000001001001DANIEL CUERO                                                                                         X0           OJAL MERIZALDE                                                                                       D00000000003000000000000000000007300001012026000000000208000
5249000000000000002090000000001001001DANIEL CUERO                                                                                         X0           CONTRERA                                                                                             D00000000005000000000000000000011600001012026000000000209000
5249000000000000002100000000001001001DELFIN CUERO                                                                                         X0           LA PRIETA                                                                                            D00000000002000000000000000000011600001012026000000000210000
5249000000000000002110000000001001001ENCARNACION CUERO                                                                                    X0           EL TIGRE                                                                                             D00000000001000000000000000000011600001012026000000000211000
5249000000000000002120000000001001001EVARISTO CUERO                                                                                       X0           GUABA                                                                                                D00000000001000000000000000000007300001012026000000000212000
5249000000000000002130000000001001001FRANCISCO CUERO                                                                                      X0           AJI                                                                                                  D00000000001000000000000000000004100001012026000000000213000
5249000000000000002140000000001001001FRANCISCO CUERO                                                                                      X0           AJI                                                                                                  D00000000002000000000000000000007300001012026000000000214000
5249000000000000002150000000001001001FRANCISCO CUERO                                                                                      X0           CONQUERO                                                                                             D00000000000172800000000000000005700001012026000000000215000
5249000000000000002160000000001001001IGNACIO CUERO                                                                                        X0           GUANBA                                                                                               D00000000005000000000000000000007300001012026000000000216000
5249000000000000002170000000001001001ISAAC CUERO                                                                                          X0           PORVENIR                                                                                             D00000000001000000000000000000020100001012026000000000217000
5249000000000000002180000000001001001ISAAC CUERO                                                                                          X0           HONDA                                                                                                D00000000000200000000000000000002000001012026000000000218000
5249000000000000002190000000001001001JAIME CUERO                                                                                          X0           EL TIGRE                                                                                             D00000000002000000000000000000023300001012026000000000219000
5249000000000000002200000000001001001JOSE MAGDALENO CUERO                                                                                 X0           LA LOMA                                                                                              D00000000001000000000000000000011600001012026000000000220000
5249000000000000002210000000001001001JUAN CANCIO CUERO SEGURA                                                                             X0           SANTINGA ARBOLITO                                                                                    D00000000025500000000000000000020100001012026000000000221000
5249000000000000002220000000001001001JUAN CANCIO CUERO SEGURA                                                                             X0           SANTINAGA CAIMITO                                                                                    D00000000002100000000000000000001900001012026000000000222000
5249000000000000002230000000001001001MACLOVIO CUERO                                                                                       X0           LOS PANCHOS                                                                                          D00000000002000000000000000000023300001012026000000000223000
5249000000000000002240000000001001001MACLOVIO CUERO                                                                                       X0           SAN AGUSTIN                                                                                          D00000000001000000000000000000005700001012026000000000224000
5249000000000000002250000000001001001MANUEL CUERO                                                                                         X0           ROBLE                                                                                                D00000000001000000000000000000007300001012026000000000225000
5249000000000000002260000000001001001MANUEL CUERO                                                                                         X0           ROBLE                                                                                                D00000000001000000000000000000007300001012026000000000226000
5249000000000000002270000000001001001MANUEL SANTOS CUERO                                                                                  X0           DISPENSA                                                                                             D00000000000500000000000000000004100001012026000000000227000
5249000000000000002280000000001001001MANUEL SANTOS CUERO                                                                                  X0           CONEJO                                                                                               D00000000001000000000000000000011600001012026000000000228000
5249000000000000002290000000001001001MARTIN CUEMI                                                                                         X0           ESMERALDA                                                                                            D00000000001000000000000000000074600001012026000000000229000
5249000000000000002300000000001001001MARTIN CUEMI                                                                                         X0           SANTIAGO                                                                                             D00000000001000000000000000000004100001012026000000000230000
5249000000000000002310000000001001001MIGUEL CUERO                                                                                         X0           GUABAL                                                                                               D00000000001000000000000000000007300001012026000000000231000
5249000000000000002320000000001001001PAULINO CUERO                                                                                        X0           PAMBIL                                                                                               D00000000002000000000000000000020100001012026000000000232000
5249000000000000002330000000001001001PAULINO CUERO                                                                                        X0           LAS MARIAS                                                                                           D00000000001000000000000000000023300001012026000000000233000
5249000000000000002340000000001001001PEDRO PABLO CUERO                                                                                    X0           CONTRERAS                                                                                            D00000000000358400000000000000002000001012026000000000234000
5249000000000000002350000000001001001PATROCINIO CUERO                                                                                     X0           PUNTA SUAVE                                                                                          D00000000001000000000000000000007300001012026000000000235000
5249000000000000002360000000001001001REYES CUERO                                                                                          X0           DESPENSA                                                                                             D00000000000500000000000000000004100001012026000000000236000
5249000000000000002370000000001001001REYES CUERO                                                                                          X0           CHOCOLATAL                                                                                           D00000000000500000000000000000002000001012026000000000237000
5249000000000000002380000000001001001REYES CUERO                                                                                          X0           CONEJO                                                                                               D00000000005000000000000000000002000001012026000000000238000
5249000000000000002390000000001001001TELMO CUERO                                                                                          X0           EL CARANO                                                                                            D00000000001000000000000000000007300001012026000000000239000
5249000000000000002400000000001001001TELMO CUERO                                                                                          X0           CHACHAJO                                                                                             D00000000000500000000000000000004100001012026000000000240000
5249000000000000002410000000001001001TRINIDAD CUERO                                                                                       X0           SANTA ANA                                                                                            D00000000002000000000000000000007300001012026000000000241000
5249000000000000002420000000001001001VIVIANO CUERO                                                                                        X0           GUANGORE                                                                                             D00000000001000000000000000000007300001012026000000000242000
5249000000000000002430000000001001001RAMON DELGADO                                                                                        X0           BAQUERIA                                                                                             D00000000001000000000000000000007300001012026000000000243000
5249000000000000002440000000001001001RICAURTE DELGADO                                                                                     X0           CALABAZAL                                                                                            D00000000001000000000000000000007300001012026000000000244000
5249000000000000002450000000001001001ANTONIO ESCALLON                                                                                     X0           BOCA SETINGA                                                                                         D00000000003000000000000000000026700001012026000000000245000
5249000000000000002460000000001001001ILARIO ESTUPINAN                                                                                     X0           PRIETA                                                                                               D00000000000500000000000000000002000001012026000000000246000
5249000000000000002470000000001001001ASTOLFO ESTUPINAN                                                                                    X0           ESPERANZA                                                                                            D00000000001000000000000000000007300001012026000000000247000
5249000000000000002480000000001001001ROSALIA ESTUPINAN                                                                                    X0           SANQUIANGO                                                                                           D00000000001000000000000000000005500001012026000000000248000
5249000000000000002490000000001001001GRATILIANO FRANCO                                                                                    X0           OJAL                                                                                                 D00000000001000000000000000000007300001012026000000000249000
5249000000000000002500000000001001001GRATILIANO FRANCO                                                                                    X0           BRASO LARGO                                                                                          D00000000000500000000000000000004100001012026000000000250000
5249000000000000002510000000001001001ROGELIO FRANCO                                                                                       X0           SANQUIANGO                                                                                           D00000000000500000000000000000005700001012026000000000251000
5249000000000000002520000000001001001ANDRES GAMBOA                                                                                        X0           MERISALDE                                                                                            D00000000000004700000000000000007300001012026000000000252000
5249000000000000002530000000001001001ANDRES GAMBOA                                                                                        X0           ZAPANGUE                                                                                             D00000000001000000000000000000003400001012026000000000253000
5249000000000000002540000000001001001GRACIANO GARCES                                                                                      X0           LOMA                                                                                                 D00000000002000000000000000000014800001012026000000000254000
5249000000000000002550000000001001001LUIS ANTONIO GARCES                                                                                  X0           TURBIO                                                                                               D00000000000010000000000000000011600001012026000000000255000
5249000000000000002560000000001001001MANUEL GARCES                                                                                        X0           ZAPANGUE                                                                                             D00000000000017500000000000000026700001012026000000000256000
5249000000000000002570000000001001001SANTOS GARCES                                                                                        X0           ZAPANGUE                                                                                             D00000000002000000000000000000013300001012026000000000257000
5249000000000000002580000000001001001ANGELINA GARCIA                                                                                      X0           GUINEA                                                                                               D00000000000040000000000000000009500001012026000000000258000
5249000000000000002590000000001001001ANTONIO GARCIA SALAZAR                                                                               X0           GUITARA                                                                                              D00000000000280000000000000000002000001012026000000000259000
5249000000000000002600000000001001001CLODOMIRO GARCIA                                                                                     X0           CHORRO                                                                                               D00000000000014100000000000000002000001012026000000000260000
5249000000000000002610000000001001001CLODOMIRO GARCIA                                                                                     X0           LA TURBIA                                                                                            D00000000000038000000000000000005700001012026000000000261000
5249000000000000002620000000001001001EMILIANO GARCIA                                                                                      X0           GUAITARA                                                                                             D00000000000080000000000000000007300001012026000000000262000
5249000000000000002630000000001001001JACOB GARCIA                                                                                         X0           CALABAZAL                                                                                            D00000000010000000000000000000007300001012026000000000263000
5249000000000000002640000000001001001JACOB GARCIA                                                                                         X0           SOLEDAD                                                                                              D00000000002000000000000000000031000001012026000000000264000
5249000000000000002650000000001001001MANUEL GARCIA                                                                                        X0           PUERQUERA                                                                                            D00000000000048000000000000000007300001012026000000000265000
5249000000000000002660000000001001001MANUEL GARCIA                                                                                        X0           GUITARA                                                                                              D00000000000500000000000000000004100001012026000000000266000
5249000000000000002670000000001001001MANUEL FRANCISCO GARCIA                                                                              X0           SANQUIANQUITA                                                                                        D00000000001000000000000000000005700001012026000000000267000
5249000000000000002680000000001001001PACIFICO GARCIA                                                                                      X0           GUAITARA                                                                                             D00000000001000000000000000000011600001012026000000000268000
5249000000000000002690000000001001001ROBERTO GARCIA                                                                                       X0           PUERQUERA                                                                                            D00000000000040000000000000000011600001012026000000000269000
5249000000000000002700000000001001001ROBERTO GARCIA                                                                                       X0           GUAITARIA                                                                                            D00000000000040000000000000000014800001012026000000000270000
5249000000000000002710000000001001001SEGUNDO GARCIA                                                                                       X0           NERETICO                                                                                             D00000000000020000000000000000007300001012026000000000271000
5249000000000000002720000000001001001SENOVIO GARCIA                                                                                       X0           SANTANA                                                                                              D00000000000066000000000000000023300001012026000000000272000
5249000000000000002730000000001001001VISITACION GARCIA                                                                                    X0           GUAITARA                                                                                             D00000000000060000000000000000007300001012026000000000273000
5249000000000000002740000000001001001VISITACION GARCIA                                                                                    X0           TURBIA                                                                                               D00000000004000000000000000000014800001012026000000000274000
5249000000000000002750000000001001001LUIS ANTONIO GODDY                                                                                   X0           PROVIDENCIA                                                                                          D00000000000030000000000000000007300001012026000000000275000
5249000000000000002760000000001001001SALOMON GOMEZ                                                                                        X0           PAMBILARES                                                                                           D00000000002000000000000000000007300001012026000000000276000
5249000000000000002770000000001001001ADELMA GONGORA                                                                                       X0           LOMA                                                                                                 D00000000001000000000000000000007300001012026000000000277000
5249000000000000002780000000001001001ADELMA GONGORA                                                                                       X0           CALABAZAL                                                                                            D00000000000010000000000000000007300001012026000000000278000
5249000000000000002790000000001001001CIRILO GONGORA                                                                                       X0           PLATANILLO                                                                                           D00000000000165600000000000000005700001012026000000000279000
5249000000000000002800000000001001001EUCLIDES GONGORA                                                                                     X0           CALABAZAL                                                                                            D00000000000033200000000000000007300001012026000000000280000
5249000000000000002810000000001001001ISMENIA GONGORA                                                                                      X0           CONTRERA                                                                                             D00000000003000000000000000000004100001012026000000000281000
5249000000000000002820000000001001001ISMENIA GONGORA                                                                                      X0           PLATANILLO                                                                                           D00000000000160000000000000000002000001012026000000000282000
5249000000000000002830000000001001001ISMENIA GONGORA                                                                                      X0           PLATANERO                                                                                            D00000000000200000000000000000002000001012026000000000283000
5249000000000000002840000000001001001ISMENIO GONGORA                                                                                      X0           MERIZALDE                                                                                            D00000000000080000000000000000004100001012026000000000284000
5249000000000000002850000000001001001JUAN TOMAS GORDIANO                                                                                  X0           PITAL                                                                                                D00000000002000000000000000000011600001012026000000000285000
5249000000000000002860000000001001001GABINO GRANJA                                                                                        X0           SANGUISAN                                                                                            D00000000000080000000000000000011600001012026000000000286000
5249000000000000002870000000001001001ANUNCIACION GRUESO                                                                                   X0           HIGUERON                                                                                             D00000000001000000000000000000007300001012026000000000287000
5249000000000000002880000000001001001BACILIO GRUESO                                                                                       X0           PLATANILLO                                                                                           D00000000000040000000000000000004100001012026000000000288000
5249000000000000002890000000001001001BERNARDINO GRUESO                                                                                    X0           MERIZALDE                                                                                            D00000000002000000000000000000007300001012026000000000289000
5249000000000000002900000000001001001BERNARDINO GRUESO                                                                                    X0           MAIGUAL                                                                                              D00000000003000000000000000000004100001012026000000000290000
5249000000000000002910000000001001001CIPRIANO GRUESO                                                                                      X0           SALADO                                                                                               D00000000004000000000000000000014800001012026000000000291000
5249000000000000002920000000001001001CIPRIANO GRUESO                                                                                      X0           LA PUNTA                                                                                             D00000000003000000000000000000007300001012026000000000292000
5249000000000000002930000000001001001CIPRIANO GRUESO                                                                                      X0           LA CASITA                                                                                            D00000000000050000000000000000002000001012026000000000293000
5249000000000000002940000000001001001CIPRIANO GRUESO                                                                                      X0           ALTERON                                                                                              D00000000003000000000000000000005700001012026000000000294000
5249000000000000002950000000001001001FELIPE GRUESO                                                                                        X0           ZAPANGUE                                                                                             D00000000007000000000000000000011600001012026000000000295000
5249000000000000002960000000001001001FERNANDO GRUESO                                                                                      X0           GUABITO                                                                                              D00000000000036000000000000000007300001012026000000000296000
5249000000000000002970000000001001001GILBERTO GRUESO                                                                                      X0           ALTERON                                                                                              D00000000002000000000000000000004100001012026000000000297000
5249000000000000002980000000001001001GILBERTO GRUESO                                                                                      X0           CONEJO                                                                                               D00000000006000000000000000000007300001012026000000000298000
5249000000000000002990000000001001001JULIO GRUESO                                                                                         X0           CONEJO                                                                                               D00000000000007000000000000000002000001012026000000000299000
5249000000000000003000000000001001001JULIO GRUESO                                                                                         X0           TURBIA                                                                                               D00000000000006000000000000000002000001012026000000000300000
5249000000000000003010000000001001001JULIO GRUESO                                                                                         X0           TURBIA                                                                                               D00000000000010000000000000000007300001012026000000000301000
5249000000000000003020000000001001001JUSTINIANO GRUESO                                                                                    X0           ZAPANGUE                                                                                             D00000000006000000000000000000011600001012026000000000302000
5249000000000000003030000000001001001JUSTINIANO GRUESO                                                                                    X0           MERIZALDE                                                                                            D00000000005000000000000000000007300001012026000000000303000
5249000000000000003040000000001001001JUAN ANTONIO GRUESO                                                                                  X0           LAS MARIAS                                                                                           D00000000000040000000000000000007300001012026000000000304000
5249000000000000003050000000001001001JUAN ANTONIO GUERSO                                                                                  X0           GUABITO                                                                                              D00000000000040000000000000000007300001012026000000000305000
5249000000000000003060000000001001001LEOPOLDO GRUESO                                                                                      X0           CEDRO                                                                                                D00000000000060000000000000000007300001012026000000000306000
5249000000000000003070000000001001001MARTIN GRUESO                                                                                        X0           MERIZALDE                                                                                            D00000000004000000000000000000007300001012026000000000307000
5249000000000000003080000000001001001MARTIN GRUESO                                                                                        X0           MERIZALDE                                                                                            D00000000004000000000000000000007300001012026000000000308000
5249000000000000003090000000001001001SOLON GRUESO                                                                                         X0           VUELTA LARGA                                                                                         D00000000000008000000000000000002000001012026000000000309000
5249000000000000003100000000001001001SOLON GRUESO                                                                                         X0           BAQUERIA                                                                                             D00000000000020000000000000000004100001012026000000000310000
5249000000000000003110000000001001001SOLON GRUESO                                                                                         X0           EL TIGRE                                                                                             D00000000000015000000000000000002000001012026000000000311000
5249000000000000003120000000001001001ABAD GUERRERO                                                                                        X0           OJAL                                                                                                 D00000000004000000000000000000004100001012026000000000312000
5249000000000000003130000000001001001ABAD GUERRERO                                                                                        X0           AGUACATE                                                                                             D00000000004000000000000000000004100001012026000000000313000
5249000000000000003140000000001001001ABAD GUERRERO                                                                                        X0           OJAL                                                                                                 D00000000004000000000000000000004100001012026000000000314000
